{
  "contractName": "SmartParking",
  "abi": [
    {
      "inputs": [],
      "stateMutability": "nonpayable",
      "type": "constructor"
    },
    {
      "anonymous": false,
      "inputs": [
        {
          "indexed": false,
          "internalType": "address",
          "name": "from",
          "type": "address"
        },
        {
          "indexed": false,
          "internalType": "address",
          "name": "to",
          "type": "address"
        },
        {
          "indexed": false,
          "internalType": "uint256",
          "name": "amount",
          "type": "uint256"
        }
      ],
      "name": "Sent",
      "type": "event"
    },
    {
      "anonymous": false,
      "inputs": [
        {
          "indexed": false,
          "internalType": "uint256",
          "name": "_id",
          "type": "uint256"
        }
      ],
      "name": "UserAdded",
      "type": "event"
    },
    {
      "anonymous": false,
      "inputs": [
        {
          "indexed": false,
          "internalType": "uint256",
          "name": "_id",
          "type": "uint256"
        }
      ],
      "name": "UserDeleted",
      "type": "event"
    },
    {
      "anonymous": false,
      "inputs": [
        {
          "indexed": false,
          "internalType": "uint256",
          "name": "_id",
          "type": "uint256"
        }
      ],
      "name": "UserEdited",
      "type": "event"
    },
    {
      "anonymous": false,
      "inputs": [
        {
          "indexed": false,
          "internalType": "uint256",
          "name": "_id",
          "type": "uint256"
        }
      ],
      "name": "VehicleAdded",
      "type": "event"
    },
    {
      "anonymous": false,
      "inputs": [
        {
          "indexed": false,
          "internalType": "uint256",
          "name": "_id",
          "type": "uint256"
        }
      ],
      "name": "VehicleDeleted",
      "type": "event"
    },
    {
      "anonymous": false,
      "inputs": [
        {
          "indexed": false,
          "internalType": "uint256",
          "name": "_id",
          "type": "uint256"
        }
      ],
      "name": "VehicleEdited",
      "type": "event"
    },
    {
      "inputs": [],
      "name": "UserCount",
      "outputs": [
        {
          "internalType": "uint256",
          "name": "",
          "type": "uint256"
        }
      ],
      "stateMutability": "view",
      "type": "function",
      "constant": true
    },
    {
      "inputs": [
        {
          "internalType": "uint256",
          "name": "",
          "type": "uint256"
        }
      ],
      "name": "adopters",
      "outputs": [
        {
          "internalType": "address",
          "name": "",
          "type": "address"
        }
      ],
      "stateMutability": "view",
      "type": "function",
      "constant": true
    },
    {
      "inputs": [
        {
          "internalType": "address",
          "name": "",
          "type": "address"
        }
      ],
      "name": "balance",
      "outputs": [
        {
          "internalType": "uint256",
          "name": "",
          "type": "uint256"
        }
      ],
      "stateMutability": "view",
      "type": "function",
      "constant": true
    },
    {
      "inputs": [],
      "name": "minter",
      "outputs": [
        {
          "internalType": "address",
          "name": "",
          "type": "address"
        }
      ],
      "stateMutability": "view",
      "type": "function",
      "constant": true
    },
    {
      "inputs": [
        {
          "internalType": "address",
          "name": "",
          "type": "address"
        }
      ],
      "name": "userBalances",
      "outputs": [
        {
          "internalType": "uint256",
          "name": "",
          "type": "uint256"
        }
      ],
      "stateMutability": "view",
      "type": "function",
      "constant": true
    },
    {
      "inputs": [
        {
          "internalType": "uint256",
          "name": "",
          "type": "uint256"
        }
      ],
      "name": "users",
      "outputs": [
        {
          "internalType": "uint256",
          "name": "id",
          "type": "uint256"
        },
        {
          "internalType": "string",
          "name": "name",
          "type": "string"
        },
        {
          "internalType": "string",
          "name": "password",
          "type": "string"
        },
        {
          "internalType": "string",
          "name": "phone",
          "type": "string"
        }
      ],
      "stateMutability": "view",
      "type": "function",
      "constant": true
    },
    {
      "inputs": [],
      "name": "vehicleCount",
      "outputs": [
        {
          "internalType": "uint256",
          "name": "",
          "type": "uint256"
        }
      ],
      "stateMutability": "view",
      "type": "function",
      "constant": true
    },
    {
      "inputs": [
        {
          "internalType": "uint256",
          "name": "",
          "type": "uint256"
        }
      ],
      "name": "vehicles",
      "outputs": [
        {
          "internalType": "uint256",
          "name": "id",
          "type": "uint256"
        },
        {
          "internalType": "string",
          "name": "brand",
          "type": "string"
        },
        {
          "internalType": "string",
          "name": "lisencePlate",
          "type": "string"
        },
        {
          "internalType": "string",
          "name": "model",
          "type": "string"
        }
      ],
      "stateMutability": "view",
      "type": "function",
      "constant": true
    },
    {
      "inputs": [
        {
          "internalType": "address",
          "name": "receiver",
          "type": "address"
        },
        {
          "internalType": "uint256",
          "name": "amount",
          "type": "uint256"
        }
      ],
      "name": "mint",
      "outputs": [],
      "stateMutability": "nonpayable",
      "type": "function"
    },
    {
      "inputs": [
        {
          "internalType": "address",
          "name": "sender",
          "type": "address"
        },
        {
          "internalType": "address",
          "name": "receiver",
          "type": "address"
        },
        {
          "internalType": "uint256",
          "name": "amount",
          "type": "uint256"
        }
      ],
      "name": "send",
      "outputs": [],
      "stateMutability": "nonpayable",
      "type": "function"
    },
    {
      "inputs": [],
      "name": "getUserCount",
      "outputs": [
        {
          "internalType": "uint256",
          "name": "",
          "type": "uint256"
        }
      ],
      "stateMutability": "view",
      "type": "function",
      "constant": true
    },
    {
      "inputs": [
        {
          "internalType": "string",
          "name": "_name",
          "type": "string"
        },
        {
          "internalType": "string",
          "name": "_password",
          "type": "string"
        },
        {
          "internalType": "string",
          "name": "_phone",
          "type": "string"
        }
      ],
      "name": "addUser",
      "outputs": [],
      "stateMutability": "nonpayable",
      "type": "function"
    },
    {
      "inputs": [
        {
          "internalType": "uint256",
          "name": "_id",
          "type": "uint256"
        }
      ],
      "name": "deleteUser",
      "outputs": [],
      "stateMutability": "nonpayable",
      "type": "function"
    },
    {
      "inputs": [
        {
          "internalType": "uint256",
          "name": "_id",
          "type": "uint256"
        },
        {
          "internalType": "string",
          "name": "_name",
          "type": "string"
        },
        {
          "internalType": "string",
          "name": "_password",
          "type": "string"
        },
        {
          "internalType": "string",
          "name": "_phone",
          "type": "string"
        }
      ],
      "name": "editUser",
      "outputs": [],
      "stateMutability": "nonpayable",
      "type": "function"
    },
    {
      "inputs": [
        {
          "internalType": "string",
          "name": "_name",
          "type": "string"
        },
        {
          "internalType": "string",
          "name": "_password",
          "type": "string"
        }
      ],
      "name": "signin",
      "outputs": [
        {
          "internalType": "bool",
          "name": "",
          "type": "bool"
        }
      ],
      "stateMutability": "view",
      "type": "function",
      "constant": true
    },
    {
      "inputs": [
        {
          "internalType": "uint256",
          "name": "catId",
          "type": "uint256"
        },
        {
          "internalType": "address",
          "name": "adopter",
          "type": "address"
        },
        {
          "internalType": "string",
          "name": "duration",
          "type": "string"
        },
        {
          "internalType": "string",
          "name": "startTime",
          "type": "string"
        }
      ],
      "name": "adopt",
      "outputs": [
        {
          "internalType": "uint256",
          "name": "",
          "type": "uint256"
        }
      ],
      "stateMutability": "nonpayable",
      "type": "function"
    },
    {
      "inputs": [],
      "name": "getAdopters",
      "outputs": [
        {
          "internalType": "address[20]",
          "name": "",
          "type": "address[20]"
        }
      ],
      "stateMutability": "view",
      "type": "function",
      "constant": true
    },
    {
      "inputs": [],
      "name": "getVehiculeCount",
      "outputs": [
        {
          "internalType": "uint256",
          "name": "",
          "type": "uint256"
        }
      ],
      "stateMutability": "view",
      "type": "function",
      "constant": true
    },
    {
      "inputs": [
        {
          "internalType": "string",
          "name": "_brand",
          "type": "string"
        },
        {
          "internalType": "string",
          "name": "_lisencePlate",
          "type": "string"
        },
        {
          "internalType": "string",
          "name": "_model",
          "type": "string"
        }
      ],
      "name": "addVehicle",
      "outputs": [],
      "stateMutability": "nonpayable",
      "type": "function"
    },
    {
      "inputs": [
        {
          "internalType": "uint256",
          "name": "_id",
          "type": "uint256"
        }
      ],
      "name": "deleteVehicle",
      "outputs": [],
      "stateMutability": "nonpayable",
      "type": "function"
    },
    {
      "inputs": [
        {
          "internalType": "uint256",
          "name": "_id",
          "type": "uint256"
        },
        {
          "internalType": "string",
          "name": "_brand",
          "type": "string"
        },
        {
          "internalType": "string",
          "name": "_lisencePlate",
          "type": "string"
        },
        {
          "internalType": "string",
          "name": "_model",
          "type": "string"
        }
      ],
      "name": "editVehicle",
      "outputs": [],
      "stateMutability": "nonpayable",
      "type": "function"
    }
  ],
  "bytecode": "0x608060405234801561001057600080fd5b5033600160006101000a81548173ffffffffffffffffffffffffffffffffffffffff021916908373ffffffffffffffffffffffffffffffffffffffff1602179055506000600381905550600080819055506120c9806100706000396000f3fe608060405234801561001057600080fd5b50600436106101375760003560e01c80634815e3d2116100b857806395c5fed41161007c57806395c5fed414610c9f578063990a4a9a14610e885780639970493714610ff0578063b5cb15f71461100e578063b8ba95fa1461102c578063e3d670d7146111b257610137565b80634815e3d21461052257806349703bfb1461071557806359332ad51461090857806374cc7e1314610af157806379012a4b14610c8157610137565b806338f14845116100ff57806338f14845146103da5780633a4a2c0b146104085780633de4eb171461043657806340c10f191461047c57806343ae80d3146104ca57610137565b8063075461721461013c5780630779afe61461017057806315931724146101de57806326224c64146101fc578063365b98b214610254575b600080fd5b61014461120a565b604051808273ffffffffffffffffffffffffffffffffffffffff16815260200191505060405180910390f35b6101dc6004803603606081101561018657600080fd5b81019080803573ffffffffffffffffffffffffffffffffffffffff169060200190929190803573ffffffffffffffffffffffffffffffffffffffff16906020019092919080359060200190929190505050611230565b005b6101e661138e565b6040518082815260200191505060405180910390f35b61023e6004803603602081101561021257600080fd5b81019080803573ffffffffffffffffffffffffffffffffffffffff169060200190929190505050611394565b6040518082815260200191505060405180910390f35b6102806004803603602081101561026a57600080fd5b81019080803590602001909291905050506113ac565b60405180858152602001806020018060200180602001848103845287818151815260200191508051906020019080838360005b838110156102ce5780820151818401526020810190506102b3565b50505050905090810190601f1680156102fb5780820380516001836020036101000a031916815260200191505b50848103835286818151815260200191508051906020019080838360005b83811015610334578082015181840152602081019050610319565b50505050905090810190601f1680156103615780820380516001836020036101000a031916815260200191505b50848103825285818151815260200191508051906020019080838360005b8381101561039a57808201518184015260208101905061037f565b50505050905090810190601f1680156103c75780820380516001836020036101000a031916815260200191505b5097505050505050505060405180910390f35b610406600480360360208110156103f057600080fd5b81019080803590602001909291905050506115a4565b005b6104346004803603602081101561041e57600080fd5b810190808035906020019092919050505061163f565b005b61043e6116d9565b6040518082601460200280838360005b8381101561046957808201518184015260208101905061044e565b5050505090500191505060405180910390f35b6104c86004803603604081101561049257600080fd5b81019080803573ffffffffffffffffffffffffffffffffffffffff1690602001909291908035906020019092919050505061175a565b005b6104f6600480360360208110156104e057600080fd5b81019080803590602001909291905050506117ab565b604051808273ffffffffffffffffffffffffffffffffffffffff16815260200191505060405180910390f35b6107136004803603608081101561053857600080fd5b81019080803590602001909291908035906020019064010000000081111561055f57600080fd5b82018360208201111561057157600080fd5b8035906020019184600183028401116401000000008311171561059357600080fd5b91908080601f016020809104026020016040519081016040528093929190818152602001838380828437600081840152601f19601f820116905080830192505050505050509192919290803590602001906401000000008111156105f657600080fd5b82018360208201111561060857600080fd5b8035906020019184600183028401116401000000008311171561062a57600080fd5b91908080601f016020809104026020016040519081016040528093929190818152602001838380828437600081840152601f19601f8201169050808301925050505050505091929192908035906020019064010000000081111561068d57600080fd5b82018360208201111561069f57600080fd5b803590602001918460018302840111640100000000831117156106c157600080fd5b91908080601f016020809104026020016040519081016040528093929190818152602001838380828437600081840152601f19601f8201169050808301925050505050505091929192905050506117de565b005b6109066004803603608081101561072b57600080fd5b81019080803590602001909291908035906020019064010000000081111561075257600080fd5b82018360208201111561076457600080fd5b8035906020019184600183028401116401000000008311171561078657600080fd5b91908080601f016020809104026020016040519081016040528093929190818152602001838380828437600081840152601f19601f820116905080830192505050505050509192919290803590602001906401000000008111156107e957600080fd5b8201836020820111156107fb57600080fd5b8035906020019184600183028401116401000000008311171561081d57600080fd5b91908080601f016020809104026020016040519081016040528093929190818152602001838380828437600081840152601f19601f8201169050808301925050505050505091929192908035906020019064010000000081111561088057600080fd5b82018360208201111561089257600080fd5b803590602001918460018302840111640100000000831117156108b457600080fd5b91908080601f016020809104026020016040519081016040528093929190818152602001838380828437600081840152601f19601f8201169050808301925050505050505091929192905050506118b3565b005b610aef6004803603606081101561091e57600080fd5b810190808035906020019064010000000081111561093b57600080fd5b82018360208201111561094d57600080fd5b8035906020019184600183028401116401000000008311171561096f57600080fd5b91908080601f016020809104026020016040519081016040528093929190818152602001838380828437600081840152601f19601f820116905080830192505050505050509192919290803590602001906401000000008111156109d257600080fd5b8201836020820111156109e457600080fd5b80359060200191846001830284011164010000000083111715610a0657600080fd5b91908080601f016020809104026020016040519081016040528093929190818152602001838380828437600081840152601f19601f82011690508083019250505050505050919291929080359060200190640100000000811115610a6957600080fd5b820183602082011115610a7b57600080fd5b80359060200191846001830284011164010000000083111715610a9d57600080fd5b91908080601f016020809104026020016040519081016040528093929190818152602001838380828437600081840152601f19601f820116905080830192505050505050509192919290505050611988565b005b610c6b60048036036080811015610b0757600080fd5b8101908080359060200190929190803573ffffffffffffffffffffffffffffffffffffffff16906020019092919080359060200190640100000000811115610b4e57600080fd5b820183602082011115610b6057600080fd5b80359060200191846001830284011164010000000083111715610b8257600080fd5b91908080601f016020809104026020016040519081016040528093929190818152602001838380828437600081840152601f19601f82011690508083019250505050505050919291929080359060200190640100000000811115610be557600080fd5b820183602082011115610bf757600080fd5b80359060200191846001830284011164010000000083111715610c1957600080fd5b91908080601f016020809104026020016040519081016040528093929190818152602001838380828437600081840152601f19601f820116905080830192505050505050509192919290505050611a72565b6040518082815260200191505060405180910390f35b610c89611ae6565b6040518082815260200191505060405180910390f35b610e8660048036036060811015610cb557600080fd5b8101908080359060200190640100000000811115610cd257600080fd5b820183602082011115610ce457600080fd5b80359060200191846001830284011164010000000083111715610d0657600080fd5b91908080601f016020809104026020016040519081016040528093929190818152602001838380828437600081840152601f19601f82011690508083019250505050505050919291929080359060200190640100000000811115610d6957600080fd5b820183602082011115610d7b57600080fd5b80359060200191846001830284011164010000000083111715610d9d57600080fd5b91908080601f016020809104026020016040519081016040528093929190818152602001838380828437600081840152601f19601f82011690508083019250505050505050919291929080359060200190640100000000811115610e0057600080fd5b820183602082011115610e1257600080fd5b80359060200191846001830284011164010000000083111715610e3457600080fd5b91908080601f016020809104026020016040519081016040528093929190818152602001838380828437600081840152601f19601f820116905080830192505050505050509192919290505050611aef565b005b610fd860048036036040811015610e9e57600080fd5b8101908080359060200190640100000000811115610ebb57600080fd5b820183602082011115610ecd57600080fd5b80359060200191846001830284011164010000000083111715610eef57600080fd5b91908080601f016020809104026020016040519081016040528093929190818152602001838380828437600081840152601f19601f82011690508083019250505050505050919291929080359060200190640100000000811115610f5257600080fd5b820183602082011115610f6457600080fd5b80359060200191846001830284011164010000000083111715610f8657600080fd5b91908080601f016020809104026020016040519081016040528093929190818152602001838380828437600081840152601f19601f820116905080830192505050505050509192919290505050611c1b565b60405180821515815260200191505060405180910390f35b610ff8611d6b565b6040518082815260200191505060405180910390f35b611016611d71565b6040518082815260200191505060405180910390f35b6110586004803603602081101561104257600080fd5b8101908080359060200190929190505050611d7b565b60405180858152602001806020018060200180602001848103845287818151815260200191508051906020019080838360005b838110156110a657808201518184015260208101905061108b565b50505050905090810190601f1680156110d35780820380516001836020036101000a031916815260200191505b50848103835286818151815260200191508051906020019080838360005b8381101561110c5780820151818401526020810190506110f1565b50505050905090810190601f1680156111395780820380516001836020036101000a031916815260200191505b50848103825285818151815260200191508051906020019080838360005b83811015611172578082015181840152602081019050611157565b50505050905090810190601f16801561119f5780820380516001836020036101000a031916815260200191505b5097505050505050505060405180910390f35b6111f4600480360360208110156111c857600080fd5b81019080803573ffffffffffffffffffffffffffffffffffffffff169060200190929190505050611f73565b6040518082815260200191505060405180910390f35b600160009054906101000a900473ffffffffffffffffffffffffffffffffffffffff1681565b80600260008573ffffffffffffffffffffffffffffffffffffffff1673ffffffffffffffffffffffffffffffffffffffff16815260200190815260200160002054101561127c57600080fd5b80600260008573ffffffffffffffffffffffffffffffffffffffff1673ffffffffffffffffffffffffffffffffffffffff1681526020019081526020016000206000828254039250508190555080600260008473ffffffffffffffffffffffffffffffffffffffff1673ffffffffffffffffffffffffffffffffffffffff168152602001908152602001600020600082825401925050819055507f3990db2d31862302a685e8086b5755072a6e2b5b780af1ee81ece35ee3cd3345838383604051808473ffffffffffffffffffffffffffffffffffffffff1681526020018373ffffffffffffffffffffffffffffffffffffffff168152602001828152602001935050505060405180910390a1505050565b60035481565b60046020528060005260406000206000915090505481565b6005602052806000526040600020600091509050806000015490806001018054600181600116156101000203166002900480601f01602080910402602001604051908101604052809291908181526020018280546001816001161561010002031660029004801561145e5780601f106114335761010080835404028352916020019161145e565b820191906000526020600020905b81548152906001019060200180831161144157829003601f168201915b505050505090806002018054600181600116156101000203166002900480601f0160208091040260200160405190810160405280929190818152602001828054600181600116156101000203166002900480156114fc5780601f106114d1576101008083540402835291602001916114fc565b820191906000526020600020905b8154815290600101906020018083116114df57829003601f168201915b505050505090806003018054600181600116156101000203166002900480601f01602080910402602001604051908101604052809291908181526020018280546001816001161561010002031660029004801561159a5780601f1061156f5761010080835404028352916020019161159a565b820191906000526020600020905b81548152906001019060200180831161157d57829003601f168201915b5050505050905084565b600560008281526020019081526020016000206000808201600090556001820160006115d09190611f8b565b6002820160006115e09190611f8b565b6003820160006115f09190611f8b565b5050600360008154809291906001900391905055507f42a77abd0397855f875460bb511f41935bfa5f396b556d95717d8c2e08334aae816040518082815260200191505060405180910390a150565b601a600082815260200190815260200160002060008082016000905560018201600061166b9190611f8b565b60028201600061167b9190611f8b565b60038201600061168b9190611f8b565b50506000808154809291906001900391905055507fe0e93c98b6521783b1a5188daabb5e51726534e31ca82d44f9e41a024b880474816040518082815260200191505060405180910390a150565b6116e1611fd3565b6006601480602002604051908101604052809291908260148015611750576020028201915b8160009054906101000a900473ffffffffffffffffffffffffffffffffffffffff1673ffffffffffffffffffffffffffffffffffffffff1681526020019060010190808311611706575b5050505050905090565b80600260008473ffffffffffffffffffffffffffffffffffffffff1673ffffffffffffffffffffffffffffffffffffffff168152602001908152602001600020600082825401925050819055505050565b600681601481106117b857fe5b016000915054906101000a900473ffffffffffffffffffffffffffffffffffffffff1681565b604051806080016040528085815260200184815260200183815260200182815250601a6000868152602001908152602001600020600082015181600001556020820151816001019080519060200190611838929190611ff6565b506040820151816002019080519060200190611855929190611ff6565b506060820151816003019080519060200190611872929190611ff6565b509050507f95c871e1f70868093a51a8fcbaaee64858343729ef71966d01f08fdef56e4749846040518082815260200191505060405180910390a150505050565b6040518060800160405280858152602001848152602001838152602001828152506005600086815260200190815260200160002060008201518160000155602082015181600101908051906020019061190d929190611ff6565b50604082015181600201908051906020019061192a929190611ff6565b506060820151816003019080519060200190611947929190611ff6565b509050507f29c9c79f57240563ee819e941228a194b90bb9ed36d4ee0b610e897d8712f5ae846040518082815260200191505060405180910390a150505050565b6040518060800160405280600054815260200184815260200183815260200182815250601a6000805481526020019081526020016000206000820151816000015560208201518160010190805190602001906119e5929190611ff6565b506040820151816002019080519060200190611a02929190611ff6565b506060820151816003019080519060200190611a1f929190611ff6565b509050507f55a66d8a7427c900449f95db666f83dcd44c6afac57572e03fdf06f7d47be2266000546040518082815260200191505060405180910390a16000808154809291906001019190505550505050565b6000808510158015611a85575060138511155b611a8e57600080fd5b8360068660148110611a9c57fe5b0160006101000a81548173ffffffffffffffffffffffffffffffffffffffff021916908373ffffffffffffffffffffffffffffffffffffffff160217905550849050949350505050565b60008054905090565b6040518060800160405280600354815260200184815260200183815260200182815250600560006003548152602001908152602001600020600082015181600001556020820151816001019080519060200190611b4d929190611ff6565b506040820151816002019080519060200190611b6a929190611ff6565b506060820151816003019080519060200190611b87929190611ff6565b50905050600360008154600101919050819055600460003373ffffffffffffffffffffffffffffffffffffffff1673ffffffffffffffffffffffffffffffffffffffff168152602001908152602001600020819055507f27412bb19840b11057dee7c7019767312555c4497d8d4c2383fa6b7791bf014b6003546040518082815260200191505060405180910390a1505050565b600080600090505b600354811015611d5f578380519060200120600560008381526020019081526020016000206001016040518082805460018160011615610100020316600290048015611ca65780601f10611c84576101008083540402835291820191611ca6565b820191906000526020600020905b815481529060010190602001808311611c92575b50509150506040518091039020148015611d4357508280519060200120600560008381526020019081526020016000206002016040518082805460018160011615610100020316600290048015611d345780601f10611d12576101008083540402835291820191611d34565b820191906000526020600020905b815481529060010190602001808311611d20575b50509150506040518091039020145b15611d52576001915050611d65565b8080600101915050611c23565b50600090505b92915050565b60005481565b6000600354905090565b601a602052806000526040600020600091509050806000015490806001018054600181600116156101000203166002900480601f016020809104026020016040519081016040528092919081815260200182805460018160011615610100020316600290048015611e2d5780601f10611e0257610100808354040283529160200191611e2d565b820191906000526020600020905b815481529060010190602001808311611e1057829003601f168201915b505050505090806002018054600181600116156101000203166002900480601f016020809104026020016040519081016040528092919081815260200182805460018160011615610100020316600290048015611ecb5780601f10611ea057610100808354040283529160200191611ecb565b820191906000526020600020905b815481529060010190602001808311611eae57829003601f168201915b505050505090806003018054600181600116156101000203166002900480601f016020809104026020016040519081016040528092919081815260200182805460018160011615610100020316600290048015611f695780601f10611f3e57610100808354040283529160200191611f69565b820191906000526020600020905b815481529060010190602001808311611f4c57829003601f168201915b5050505050905084565b60026020528060005260406000206000915090505481565b50805460018160011615610100020316600290046000825580601f10611fb15750611fd0565b601f016020900490600052602060002090810190611fcf9190612076565b5b50565b604051806102800160405280601490602082028036833780820191505090505090565b828054600181600116156101000203166002900490600052602060002090601f016020900481019282601f1061203757805160ff1916838001178555612065565b82800160010185558215612065579182015b82811115612064578251825591602001919060010190612049565b5b5090506120729190612076565b5090565b5b8082111561208f576000816000905550600101612077565b509056fea2646970667358221220347f8184f7293239045dc0e8e72effbce5b19c7dea253b21f84513538a88635464736f6c634300060c0033",
  "immutableReferences": {},
  "source": "// SPDX-License-Identifier: MIT\npragma solidity >=0.4.16 <0.9.0 ;\n\ncontract SmartParking{\n        uint256 public vehicleCount;\n\n    constructor() public{\n        minter = msg.sender ;\n        UserCount = 0;\n        vehicleCount=0;\n\n        \n    }\n    //money part\n    address public minter ;\n    mapping(address => uint) public balance ;\n\n    // Events allow light client to react on changes effectively\n    event Sent(address from, address to, uint amount) ;\n    function mint(address receiver, uint amount) public{\n        balance[receiver] += amount ;\n    }\n\n    function send(address sender, address receiver, uint amount) public{\n        if(balance[sender] < amount) revert() ;\n        balance[sender] -= amount ;\n        balance[receiver] += amount ;\n        emit Sent(sender,receiver,amount) ;\n    }\n\n    //authentification\n        uint256 public UserCount;\n\n    struct User {\n        uint256 id;\n        string name;\n        string password;\n        string phone;\n    }\n\n    event UserAdded(uint256 _id);\n    event UserDeleted(uint256 _id);\n    event UserEdited(uint256 _id);\n  \n\n    mapping(address => uint256) public userBalances;\n    mapping(uint256 => User) public users;\n\n   \n\n    function getUserCount() public view returns (uint256) {\n        return UserCount;\n    }\n\n    function addUser(\n        string memory _name,\n        string memory _password,\n        string memory _phone\n    ) public {\n        users[UserCount] = User(\n            UserCount,\n            _name,\n            _password,\n            _phone\n        );\n        userBalances[msg.sender] = ++UserCount;\n\n        emit UserAdded(UserCount);\n    }\n\n    function deleteUser(uint256 _id) public {\n        delete users[_id];\n        UserCount--;\n        emit UserDeleted(_id);\n    }\n\n    function editUser(\n        uint256 _id,\n        string memory _name,\n        string memory _password,\n        string memory _phone\n    ) public {\n        users[_id] = User(_id, _name, _password, _phone);\n        emit UserEdited(_id);\n    }\n\n    function signin(string memory _name, string memory _password) public view returns (bool) {\n        for (uint256 i = 0; i < UserCount; i++) {\n            if (keccak256(bytes(users[i].name)) == keccak256(bytes(_name)) &&\n                keccak256(bytes(users[i].password)) == keccak256(bytes(_password))) {\n                return true;\n            }\n        }\n        return false;\n    }\n    //booking part\n     address[20] public adopters ;\n\n    function adopt(uint catId, address adopter, string memory duration,string memory startTime) public returns(uint) {\n        require(catId>=0 && catId<=19) ;\n        adopters[catId] = adopter ;\n        return catId ;\n    }\n\n    function getAdopters() public view returns(address[20] memory){\n        return adopters ;\n    }\n    //vehicule part\n      struct Vehicle {\n        uint256 id;\n        string brand;\n        string lisencePlate;\n        string model;\n    }\n        mapping(uint256 => Vehicle) public vehicles;\n   event VehicleAdded(uint256 _id);\n    event VehicleDeleted(uint256 _id);\n    event VehicleEdited(uint256 _id);\n         function getVehiculeCount() public view returns (uint256 ){\n        return vehicleCount;\n    }\n\n    function addVehicle(\n        string memory _brand,\n        string memory _lisencePlate,\n        string memory _model\n    ) public {\n        vehicles[vehicleCount] = Vehicle(\n            vehicleCount,\n            _brand,\n            _lisencePlate,\n            _model\n        );\n        emit VehicleAdded(vehicleCount);\n        vehicleCount++;\n    }\n\n    function deleteVehicle(uint256 _id) public {\n        delete vehicles[_id];\n        vehicleCount--;\n        emit VehicleDeleted(_id);\n    }\n\n    function editVehicle(\n        uint256 _id,\n        string memory _brand,\n        string memory _lisencePlate,\n        string memory _model\n    ) public {\n        vehicles[_id] = Vehicle(_id, _brand, _lisencePlate, _model);\n        emit VehicleEdited(_id);\n    }\n\n\n   }",
  "sourcePath": "C:\\Users\\ASUS\\Downloads\\Authentification-main (1)\\Authentification-main\\contracts\\SmartParking.sol",
  "compiler": {
    "name": "solc",
    "version": "0.6.12+commit.27d51765.Emscripten.clang"
  },
  "schemaVersion": "3.4.16",
  "updatedAt": "2024-03-29T09:50:57.481Z",
  "networkType": "ethereum",
  "devdoc": {
    "kind": "dev",
    "methods": {},
    "version": 1
  },
  "userdoc": {
    "kind": "user",
    "methods": {},
    "version": 1
  }
}